:100000000C9470010C9498010C9498010C94980134
:100010000C9498010C9498010C9498010C949801FC
:100020000C9498010C9498010C94A6090C947208F5
:100030000C9498010C9498010C9498010C949801DC
:100040000C9498010C9498010C9498010C949801CC
:100050000C9498010C9498010C9498010C94D00283
:100060000C9498010C9498010C9498010C949801AC
:100070000C9498010C9498010C9498010C9498019C
:100080000C9498010C9498010C9498010C9498018C
:100090000C9498010C9498010C9498010C9498017C
:1000A0000C9498010C9498010C949801D303D603F6
:1000B000C503C903CF03F703F703F703DA03DE032E
:1000C000E203E803EC03F703F20300000002000977
:1000D0000F0000030401000C0000000000000000FD
:1000E00000000000000000000408020110408040F1
:1000F000102040804080080204018040201002014E
:10010000108010204040040404040403040502028B
:1001100002020403020202020606060606060404A0
:1001200002020204000000002300260029002C0027
:100130002F0000000000250028002B002E003100B9
:1001400000000000240027002A002D003000080BCA
:100150000002020201000904000001020200000581
:1001600024001001052401010104240206052406CF
:1001700000010705810310004009040100020A0084
:10018000000007050202400000070583024000004E
:1001900000C18081C11201000202000040412336EB
:1001A0008000010102000112010002000000404134
:1001B00023368000010102000141726475696E6F8F
:1001C000204C4C430041726475696E6F204C656F22
:1001D0006E6172646F0004030904000000000000F7
:1001E00000002A2B28000000000000000000000092
:1001F000000000000000000000002C9EB4A0A1A29E
:10020000A434A6A7A5AE362D3738271E1F202122DD
:1002100023242526B333B62EB7B89F8485868788D6
:10022000898A8B8C8D8E8F909192939495969798C6
:10023000999A9B9C9D2F3130A3AD35040506070884
:10024000090A0B0C0D0E0F101112131415161718A6
:10025000191A1B1C1DAFB1B0B5000904020001033F
:100260000000000921010100012265000705840347
:1002700040000105010902A1010901A10085010554
:1002800009190129031500250195037501810295BE
:1002900001750581030501093009310938158125EA
:1002A0007F750895038106C0C005010906A1018577
:1002B00002050719E029E715002501750195088158
:1002C00002950175088103950675081500256505D9
:1002D00007190029658100C0ED015305510BF50197
:1002E00011241FBECFEFDAE0DEBFCDBF11E0A0E0EA
:1002F000B1E0E2E8F9E102C005900D92A633B10742
:10030000D9F721E0A6E3B1E001C01D92A43CB207F9
:10031000E1F712E0CEEDD2E004C02297FE010E9488
:10032000820BC83DD107C9F70E9471050C94B40C2B
:100330000C94000060E080910A010E94F80360E0E4
:10034000809108010E94F80360E0809106010E94FC
:10035000F80340E855E260E070E08AE591E00C9433
:100360004D0580910A010E946704909337018093A4
:1003700036012091380130913901232B29F501975D
:1003800019F5809108010E94670420913A0130918B
:100390003B01892B19F42150310902C02F5F3F4FD7
:1003A00030933B0120933A0160913A0170913B01F7
:1003B0004AE050E08AE591E00E946E0666E171E055
:1003C0008AE591E00E94C205809136019091370143
:1003D0009093390180933801089522E548E061E067
:1003E00070E08CE391E00C94A8028CE391E00C9413
:1003F000F901CF93DF93EC0188859985009711F07F
:100400000E941E0C8E8187FD05C060E0DF91CF91B8
:100410000C94F803DF91CF910895EF92FF920F9320
:100420001F93CF93DF93EC017B018885998500971B
:1004300011F00E941E0C9D858A85981303C083E0ED
:1004400090E002C084E090E08E9D80018F9D100DB1
:100450009E9D100D11241D830C83C8010E94860BE4
:1004600099878887009741F0A80160E070E00E94BA
:10047000AD0CFB82EA8204C01D821C821B821A82A0
:10048000DF91CF911F910F91FF90EF900895FC01A4
:1004900041E095858285981340E0562F52955695F8
:1004A000569553705587862F90E09C0174E03595E2
:1004B00027957A95E1F723702287959587959595ED
:1004C0008795837083876370648781E080838085EC
:1004D0009185892B51F081E0521380E0841729F037
:1004E00062817381CF010C940D0208951F93CF9305
:1004F000DF93EC01162F8981882331F08E8187FDEF
:1005000003C060E00E94F8031E838981882341F0C4
:1005100061E0812F0E94F80360E0812F0E94310486
:10052000812F90E0FC01EA5FFE4FE491F0E0EE0FD6
:10053000FF1FEE5CFE4F259134913B8B2A8BFC0113
:10054000E851FF4F84918C8BDF91CF911F910895DB
:10055000EF92FF920F931F93CF93DF931F92CDB72C
:10056000DEB77C018B01FC01118217821186108697
:1005700016861786108A118A622F49830E944702C5
:10058000B801C7010E940D024981642FC7010F9075
:10059000DF91CF911F910F91FF90EF900C94760215
:1005A0001F920F920FB60F9211242F933F938F93A8
:1005B0009F93AF93BF938091520190915301A0916B
:1005C0005401B09155013091510123E0230F2D3793
:1005D00020F40196A11DB11D05C026E8230F029647
:1005E000A11DB11D2093510180935201909353019D
:1005F000A0935401B09355018091560190915701F9
:10060000A0915801B09159010196A11DB11D80938F
:10061000560190935701A0935801B0935901BF918F
:10062000AF919F918F913F912F910F900FBE0F909F
:100630001F9018953FB7F8948091560190915701FB
:10064000A0915801B091590126B5A89B05C02F3F34
:1006500019F00196A11DB11D3FBF6627782F892F84
:100660009A2F620F711D811D911D42E0660F771F49
:10067000881F991F4A95D1F70895CF92DF92EF9284
:10068000FF92CF93DF936B017C010E941A03EB0171
:10069000C114D104E104F10489F00E941A0A0E94F5
:1006A0001A036C1B7D0B683E734090F381E0C81AFF
:1006B000D108E108F108C851DC4FEACFDF91CF91B2
:1006C000FF90EF90DF90CF900895789484B582608A
:1006D00084BD84B5816084BD85B5826085BD85B5E6
:1006E000816085BDEEE6F0E0808181608083E1E895
:1006F000F0E01082808182608083808181608083CD
:10070000E0E8F0E0808181608083E1E9F0E08081D1
:1007100082608083808181608083E0E9F0E0808175
:1007200081608083E1ECF0E080818460808380815F
:1007300082608083808181608083E3ECF0E080814F
:1007400081608083E0ECF0E0808182608083E2EC75
:10075000F0E0808181608083EAE7F0E0808184605E
:1007600080838081826080838081816080838081BA
:1007700080688083089590E0FC013197EF30F105A7
:10078000B0F5EA5AFF4F0C94800B809180008F7770
:1007900003C0809180008F7D8093800008958091B8
:1007A0008000877FF9CF84B58F7702C084B58F7DB5
:1007B00084BD0895809190008F7707C0809190004C
:1007C0008F7D03C080919000877F80939000089573
:1007D0008091C0008F7703C08091C0008F7D80938F
:1007E000C00008958091C200877F8093C200089561
:1007F000CF93DF9390E0FC01E851FF4F2491FC017F
:10080000EA5FFE4F8491882349F190E0880F991F99
:10081000FC01E05CFE4FA591B4918E5C9E4FFC0103
:10082000C591D4919FB7611108C0F8948C9120951F
:1008300082238C93888182230AC0623051F4F89419
:100840008C91322F309583238C938881822B8883DF
:1008500004C0F8948C91822B8C939FBFDF91CF9131
:1008600008950F931F93CF93DF931F92CDB7DEB7F9
:10087000282F30E0F901E653FF4F8491F901E85148
:10088000FF4F1491F901EA5FFE4F04910023C9F074
:10089000882321F069830E94BB036981E02FF0E087
:1008A000EE0FFF1FEE5CFE4FA591B4919FB7F89439
:1008B0008C91611103C01095812301C0812B8C9311
:1008C0009FBF0F90DF91CF911F910F910895CF930C
:1008D000DF93282F30E0F901E653FF4F8491F901AF
:1008E000E851FF4FD491F901EA5FFE4FC491CC2348
:1008F00091F081110E94BB03EC2FF0E0EE0FFF1F7F
:10090000EC5DFE4FA591B4912C912D2381E090E0F8
:1009100021F480E002C080E090E0DF91CF91089563
:10092000CF93DF931F92CDB7DEB76983DC01ED91E2
:10093000FC910280F381E02D41E050E0BE016F5F49
:100940007F4F09950F90DF91CF910895CF93DF935B
:10095000EC018C859D8597FF05C082E00E944707CA
:100960009D878C878C859D85DF91CF91089583E04D
:100970000C949C09FC018485958597FD06C082E056
:100980000E94EF0690E00196089582E00E94EF0633
:1009900090E00895FC018485958597FD05C02FEFB3
:1009A0003FEF35872487089582E00C944707CF9363
:1009B000DF93EC0180911301882331F083E00E94E2
:1009C00078071816190634F081E090E09B838A833B
:1009D00080E090E0DF91CF910895FC0120812E5FAF
:1009E000208342E450E06EE471E080E80C94130848
:1009F000FC0181819081913A59F4813209F03CC027
:100A000047E050E06CE071E080E00E94130843C0D2
:100A1000913291F5803239F467E070E08CE091E03A
:100A20000E94440806C0823209F035C0828180935A
:100A3000130180910C0190910D01A0910E01B091D4
:100A40000F01803B9440A105B105C1F480911301D1
:100A500080FD14C087E797E7909301088093000812
:100A60002BE088E190E00FB6F894A89580936000A1
:100A70000FBE209360000FC080E0089588E10FB69C
:100A8000F89480936000109260000FBEA8951092B9
:100A900001081092000881E008952FEF3FEFFC015C
:100AA00035872487089510925D0110925C0188EECD
:100AB00093E0A0E0B0E080935E0190935F01A0938B
:100AC0006001B09361018CE191E090935B018093B0
:100AD0005A018FEF9FEF909367018093660108950D
:100AE00008950E9465030E9470058AEA91E00E94C1
:100AF000FC090E949A01C0E0D0E00E94B101209759
:100B0000E1F30E940000F9CFCF92DF92EF92FF92C3
:100B10000F931F93CF93DF936C017A01EB01E60EE5
:100B2000F71E00E010E0CE15DF0561F06991D601F7
:100B3000ED91FC910190F081E02DC6010995080F1F
:100B4000191FF1CFC801DF91CF911F910F91FF9035
:100B5000EF90DF90CF9008956115710581F0DB0172
:100B60000D900020E9F7AD0141505109461B570B8C
:100B7000DC01ED91FC910280F381E02D099480E08D
:100B800090E008950C94AC05DC01ED91FC9101908E
:100B9000F081E02D09948F929F92AF92BF92CF92F5
:100BA000DF92EF92FF920F931F93CF93DF93CDB716
:100BB000DEB7A1970FB6F894DEBF0FBECDBF7C01A4
:100BC000C42EE52FCB01D22E19A221E02D1510F055
:100BD0002AE0D22E8E010F5D1F4F8D2C912CA12C5F
:100BE000B12C6C2D7E2FA50194010E945E0B8C2DE3
:100BF000D29E80191124015011098A3014F4805DAD
:100C000001C0895CF801808321153105410551053A
:100C100021F0C22EE32FCA01E4CFB801C7010E9420
:100C2000AC05A1960FB6F894DEBF0FBECDBFDF9125
:100C3000CF911F910F91FF90EF90DF90CF90BF90D9
:100C4000AF909F908F900895CF92DF92EF92FF9296
:100C50000F931F93CF93DF93EC016A017B01211562
:100C6000310579F4E881F9810190F081E02D642F5C
:100C7000DF91CF911F910F91FF90EF90DF90CF9078
:100C800009942A303105E9F477FF1AC06DE20E9419
:100C9000C4058C0144275527BA014C195D096E091A
:100CA0007F092AE0CE010E94CB05800F911FDF91C2
:100CB000CF911F910F91FF90EF90DF90CF9008950B
:100CC0002AE0B701A601CE01DF91CF911F910F91CC
:100CD000FF90EF90DF90CF900C94CB059A01AB0181
:100CE000662757FD6095762F0C9424064091AE013F
:100CF0005091AF012091AC013091AD0142175307E3
:100D0000B4F49091E8009570E1F39091E80092FDC1
:100D100019C08093F1008091AE019091AF010196CE
:100D20008F739927892B19F48EEF8093E8008091B7
:100D3000AE019091AF0101969093AF018093AE0107
:100D400081E0089580E00895CF92DF92FF920F93A3
:100D50001F93CF93DF931F92CDB7DEB7082F162FC7
:100D6000862F880F8E5F99830E94760683E00E940B
:100D70007606F02EC02E9981D92E8C2D8F198117D1
:100D800078F4F60184910E947606082F80E00E9494
:100D900076068023FFEFCF1ADF0A8111EECF01C064
:100DA00081E00F90DF91CF911F910F91FF90DF9025
:100DB000CF900895615030F02091F100FC01208324
:100DC0000196F8CF289884E68093B10108952FB753
:100DD000FC012083F89467706093E9000895CF9335
:100DE000DF931F92CDB7DEB7682FCE0101960E9428
:100DF000E7068091F20099819FBF0F90DF91CF911C
:100E00000895FF920F931F93CF93DF9300D0CDB738
:100E1000DEB7F62E8A019091B001992311F057FFA9
:100E200003C08FEF9FEF2BC0682FCE0101967A830E
:100E30000E94E7068091F20090E0A8017A81801775
:100E400091070CF4AC01EF2DF72FF40E84E6FE169B
:100E500039F028988093B1019091F1009193F7CFE8
:100E60004115510521F08091F200882321F08981FC
:100E70008FBFCA0104C08BE68093E800F8CF0F90C3
:100E80000F90DF91CF911F910F91FF900895CF9315
:100E9000DF931F92CDB7DEB741E050E0BE016F5F38
:100EA0007F4F0E940107019719F4898190E002C0E9
:100EB0008FEF9FEF0F90DF91CF910895CF93DF9346
:100EC0001F92CDB7DEB7682FCE0101960E94E706CC
:100ED0009091E800892F807295FF04C09091F200F4
:100EE00080E4891B99819FBF0F90DF91CF91089576
:100EF0006F927F928F929F92AF92BF92CF92DF922A
:100F0000EF92FF920F931F93CF93DF931F92CDB772
:100F1000DEB7782E7B01C42EB52E8091B0018823D8
:100F200069F0042F152F8AEFD82E872D8072982E06
:100F30009AE3A92E872D8074882E11C08FEF9FEF22
:100F400057C0872D0E945E07682E81110CC0DA946D
:100F5000A9F361E070E080E090E00E943D0301159C
:100F6000110579F73BC0282F30E0021713070CF466
:100F7000602E672DCE0101960E94E7068091E80061
:100F800085FF29C0262D30E0021B130B992039F074
:100F90006A948FEF6816B1F01092F100F9CFF70163
:100FA000862D77FE07C0815058F094919093F10000
:100FB0003196F9CF815020F091919093F100FACFC2
:100FC000E20EF31E8091E80085FF0FC001151105A8
:100FD00011F481100AC089818FBFC1CF5D9884E66A
:100FE0008093B2018C2D9B2D03C0A092E800F3CF1B
:100FF0000F90DF91CF911F910F91FF90EF90DF90B5
:10100000CF90BF90AF909F908F907F906F900895FA
:101010001092E9001092AF011092AE019093AD01D1
:101020008093AC010895CF92DF92FF920F931F93AC
:10103000CF93DF9300D0CDB7DEB7F82E8A016B01D6
:1010400001151105B1F0F601F7FE02C0849101C04F
:10105000808149835A830E94760601501109FFEF6F
:10106000CF1ADF0A49815A818111EACF8FEF9FEFB2
:1010700001C0CA010F900F90DF91CF911F910F9186
:10108000FF90DF90CF9008951F93CF93DF931F922F
:10109000CDB7DEB7162F2091E80022FFFCCF612FDD
:1010A00079830E94DA068BEF8093E800812F7981A3
:1010B000972F0F90DF91CF911F910895CF93DF93DA
:1010C0001F92CDB7DEB71982CE0101960E94ED04C2
:1010D000CE0101960E94390A898190E00F90DF913C
:1010E000CF9108951F920F920FB60F921124EF9295
:1010F000FF920F931F932F933F934F935F936F93A1
:101100007F938F939F93AF93BF93EF93FF93CF936F
:10111000DF93CDB7DEB76297DEBFCDBF1092E90097
:101120008091E80083FFEBC068E0CE010A960E9440
:10113000DA0682EF8093E8009A8597FF05C08091D8
:10114000E80080FFFCCF03C08EEF8093E800892F7A
:10115000807609F0B9C08B85811105C01092F1002D
:101160001092F100C5C0282F2D7F213009F4C0C096
:10117000853049F48091E80080FFFCCF8C85806841
:101180008093E300B5C0863009F076C02D85E888ED
:10119000F988223071F580E090E02A8B0E940808DF
:1011A0000E945E0899E08E010F5F1F4FF801392FF2
:1011B00011923A95E9F799832A892A8391E09E83CF
:1011C00090E898879AEF99872091AE013091AF010E
:1011D000275F3F4F3C832B838D83C7010E94080804
:1011E00049E050E0B80180E00E9413080E945E08C8
:1011F0007FC0C7012A8B0E9408082A89223241F445
:1012000082E290E00E94440A892B09F071C074C008
:10121000213069F488899989089711F42093AB01EA
:101220008091AB01811118C067EA71E01AC02330C8
:1012300009F062C08C85882391F0823021F460E14E
:1012400085EC91E006C0813009F056C06BE089EB77
:1012500091E00E94A4064AC065E971E002C066ED13
:1012600071E06115710509F447C0FB01449150E03C
:1012700080E80E9413083CC0873009F43DC08830E4
:1012800021F481E08093F10033C0893089F59370B7
:1012900099F5E1E9F1E081E021E096E38093E9004E
:1012A0002093EB0034913093EC009093ED008F5F2E
:1012B0003196853099F78EE78093EA001092EA0024
:1012C0008C858093B00114C0888999890E94080890
:1012D0008E85811105C0CE010A960E94F80406C0D1
:1012E000823051F4CE010A960E946C0A882321F0C4
:1012F0008EEF8093E80003C081E28093EB0062965A
:101300000FB6F894DEBF0FBECDBFDF91CF91FF9136
:10131000EF91BF91AF919F918F917F916F915F916D
:101320004F913F912F911F910F91FF90EF900F9050
:101330000FBE0F901F9018958093E9008091F200E6
:10134000882319F08AE38093E80008951F920F9292
:101350000FB60F9211242F933F934F935F936F9388
:101360007F938F939F93AF93BF93EF93FF9380915E
:10137000E1001092E10083FF0FC01092E90091E0BC
:101380009093EB001092EC0092E39093ED0010929A
:10139000B00198E09093F00082FF1DC083E00E94AE
:1013A0009C098091B201882339F08091B20181506B
:1013B0008093B201882369F08091B101882359F0AC
:1013C0008091B10181508093B101811104C0289AAC
:1013D00002C05D9AF1CFFF91EF91BF91AF919F91C4
:1013E0008F917F916F915F914F913F912F910F90CE
:1013F0000FBE0F901F9018951092B00181E080935E
:10140000D70080EA8093D80082E189BD09B400FE4C
:10141000FDCF61E070E080E090E00E943D0380E954
:101420008093D8008CE08093E2001092E000559AFF
:10143000209A08950895FF920F931F93CF93DF93FF
:10144000EC01F62EE881F9810480F581E02D099503
:101450008C01E881F9810680F781E02D6F2DCE01A6
:101460000995C8019927DF91CF911F910F91FF90A6
:101470000895FC0120812F5F208349E150E06AE557
:1014800072E080E80C94130845E650E063E772E0F0
:1014900080E80C941308EF92FF920F931F93CF9361
:1014A000DF931F92CDB7DEB789838B017A0141E0CC
:1014B00050E0BE016F5F7F4F84E00E947807A70174
:1014C000B80184E40E9478070F90DF91CF911F91BB
:1014D0000F91FF90EF900895FC0191818081813AF6
:1014E00031F481E0913091F0933089F411C0813270
:1014F00071F49B3021F482818093150105C09A30EC
:1015000031F482818093140181E00895089580E090
:10151000089548E050E082E00C944B0ACF93DF93AB
:10152000DC01683818F0E8E7E60F25C0E62FF0E0A8
:1015300067FF11C0E058F10981E090E001C0880F19
:10154000EA95EAF714969C911497982B14969C931D
:101550001497E0E010C0E652FE4FE491EE2309F448
:1015600040C0E7FF08C014968C91149782601496CF
:101570008C931497EF7716968C9116978E1741F1EE
:1015800017968C9117978E1719F118968C911897BA
:101590008E17F1F019968C9119978E17C9F01A963B
:1015A0008C911A978E17A1F01B968C911B978E1712
:1015B00079F080E090E0ED01C80FD91F2E81211154
:1015C00002C0EE8305C0019686309105A1F709C0DF
:1015D000BD016C5F7F4FCD010E94890A81E090E0E0
:1015E00008C081E090E013969C938E93129780E060
:1015F00090E0DF91CF910895683818F0E8E7E60FA2
:1016000025C0E62FF0E067FF12C0E058F10921E0A5
:1016100030E001C0220FEA95EAF72095DC0114962C
:101620003C911497322314963C93E0E00FC0E652AD
:10163000FE4FE491EE2329F1E7FF08C0DC01149688
:101640002C9114972D7F14962C93EF7720E030E0A7
:10165000EE2351F0DC01A20FB31F16964C911697A2
:101660004E1302C016961C922F5F3F4F2630310555
:1016700079F7BC016C5F7F4F0E94890A81E090E09E
:10168000089580E090E00895FC011682178210868C
:101690001186128613861482BC016C5F7F4F0C94F6
:1016A000890A1092BF011092B6011092B5018CE226
:1016B00091E09093B4018093B3010895A1E21A2EB2
:1016C000AA1BBB1BFD010DC0AA1FBB1FEE1FFF1FE6
:1016D000A217B307E407F50720F0A21BB30BE40B36
:1016E000F50B661F771F881F991F1A9469F760957D
:1016F0007095809590959B01AC01BD01CF01089537
:10170000EE0FFF1F0590F491E02D0994CF93DF9326
:101710008230910510F482E090E0E091C201F091F6
:10172000C30120E030E0A0E0B0E0309739F1408123
:10173000518148175907B8F04817590771F4828149
:101740009381109729F013969C938E9312972CC037
:101750009093C3018093C20127C02115310531F058
:101760004217530718F0A901DB0101C0EF019A01EC
:10177000BD01DF010280F381E02DD7CF21153105B6
:10178000F9F0281B390B2430310580F48A819B81C4
:101790006115710521F0FB019383828304C090934E
:1017A000C3018093C201FE01329644C0FE01E20FE4
:1017B000F31F8193919322503109398328833AC0D2
:1017C0002091C0013091C101232B41F420910201ED
:1017D000309103013093C1012093C0012091000199
:1017E000309101012115310541F42DB73EB74091EB
:1017F000040150910501241B350BE091C001F091CB
:10180000C101E217F307A0F42E1B3F0B281739077D
:1018100078F0AC014E5F5F4F2417350748F04E0F4C
:101820005F1F5093C1014093C0018193919302C007
:10183000E0E0F0E0CF01DF91CF910895CF93DF9307
:10184000009709F487C0FC01329713821282C0917D
:10185000C201D091C301209781F420813181280FEA
:10186000391F8091C0019091C1018217930779F5CA
:10187000F093C101E093C0016DC0DE0120E030E0D3
:10188000AE17BF0750F412964D915C9113979D01CE
:101890004115510509F1DA01F3CFB383A2834081E9
:1018A0005181840F951F8A179B0771F48D919C912C
:1018B0001197840F951F02969183808312968D91C4
:1018C0009C911397938382832115310529F4F0931A
:1018D000C301E093C2013EC0D9011396FC93EE937D
:1018E00012974D915D91A40FB51FEA17FB0779F48C
:1018F00080819181840F951F0296D90111969C9346
:101900008E938281938113969C938E931297E0E03D
:10191000F0E08A819B81009719F0FE01EC01F9CF7C
:10192000CE01029628813981820F931F2091C00138
:101930003091C1012817390769F4309729F41092C2
:10194000C3011092C20102C013821282D093C1015E
:10195000C093C001DF91CF910895DC0101C06D9368
:1019600041505040E0F7089512E0CEEDD2E004C0BF
:10197000FE010E94820B2296C03ED107C9F7F8945F
:02198000FFCF97
:101982000000C401800007000600050000E100001D
:101992000000000001010A00000000009004D704CA
:1019A200BA04CA04A604B704000000001B0A840596
:0619B2008E0AFC0A440B42
:00000001FF
